:020000040800F2
:100000000050002049100008510300085303000865
:1000100055030008570300085903000800000000BA
:100020000000000000000000000000005B0300086A
:100030005D030008000000005F0300086103000882
:10004000911000089110000891100008911000080C
:1000500091100008911000089110000891100008FC
:1000600091100008911000089110000891100008EC
:1000700091100008911000089110000891100008DC
:1000800091100008911000089110000891100008CC
:1000900091100008911000089110000891100008BC
:1000A00091100008911000089110000891100008AC
:1000B000911000089110000891100008911000089C
:1000C000911000089110000891100008911000088C
:1000D000911000089110000891100008911000087C
:1000E0009110000891100008911000080000000015
:1000F0000000000000000000000000000000000000
:0C01000000000000000000005FF808F1A3
:10010C0010B5054C237833B9044B13B10448AFF345
:10011C0000800123237010BD70000020000000003F
:10012C00441B000808B5034B1BB103490348AFF34C
:10013C00008008BD0000000074000020441B000873
:10014C0072B6FEE700B591B02822002106A800F097
:10015C00BFFF0023019302930393049305930122A1
:10016C0006924FF4803307930A9202220D920E935B
:10017C004FF4E0130F9306A800F0DAFA80B90F23BE
:10018C00019302210291002303934FF480620492A5
:10019C00059301A800F0FEFC20B911B05DF804FB3A
:1001AC00FFF7CEFFFFF7CCFF00B583B000F072FA7B
:1001BC00FFF7C8FF00F02AF800F062F8104B9A69BC
:1001CC0042F480429A619B6903F480430193019B42
:1001DC000C4800F0F3FF0C4C01220821204600F0E3
:1001EC00C7FE4FF4FA7000F079FA0022082120467D
:1001FC0000F0BEFE4FF4FA7000F070FAEBE700BFAF
:10020C00001002405C1B0008000C014030B589B0A6
:10021C0000240494059406940794174B9A6942F0B1
:10022C0020029A619A6902F020020192019A9A695D
:10023C0042F008029A619A6902F008020292029A4C
:10024C009A6942F004029A619B6903F004030393D8
:10025C00039B0A4D01220821284600F089FE082341
:10026C0004930123059306940323079304A92846BA
:10027C0000F06CFD09B030BD00100240000C0140D4
:10028C0008B50A480A4B03604FF4E133436000237E
:10029C008360C36003610C224261836100F03DF90D
:1002AC0000B908BDFFF74CFFFBE700BF8C00002036
:1002BC000038014010B586B00023029303930493D9
:1002CC0005930268174B9A4201D006B010BD03F596
:1002DC0058439A6942F480429A619A6902F48042C6
:1002EC000092009A9A6942F004029A619B6903F0A9
:1002FC0004030193019B4FF4905302930223039345
:10030C0003230593084C02A9204600F01FFD4FF46F
:10031C004063029300230393049302A9204600F048
:10032C0015FDD2E7003801400008014010B5144615
:10033C004FF6FF7392B2024800F01FF9204610BD31
:10034C008C000020FEE7FEE7FEE7FEE7FEE77047C5
:10035C007047704708B500F0AFF908BD82B00E4B7E
:10036C009A6942F001029A619A6902F001020092C4
:10037C00009ADA6942F08052DA61DB6903F080534B
:10038C000193019B054A536823F0E06343F000732B
:10039C00536002B0704700BF0010024000000140E3
:1003AC00026802F10C0353E8003F23F490730C3203
:1003BC0042E800310029F3D1026802F1140353E83A
:1003CC00003F23F00103143242E800310029F3D13D
:1003DC00036B012B05D0202380F8423000230363EC
:1003EC007047026802F10C0353E8003F23F010033E
:1003FC000C3242E800310029F3D1ECE710B5044689
:10040C000268136923F44053C1680B43136183687A
:10041C000269134342691A430168CB6823F4B05351
:10042C0023F00C031343CB600268536923F440732D
:10043C0081690B4353610268134B9A4220D000F040
:10044C0065FC024602EB820202EB820263689B00AF
:10045C00B2FBF3F20D48A0FB02314909642303FB04
:10046C0011231B013233A0FB03235B0903F0F002C1
:10047C0002EB011203F00F03216813448B6010BDD3
:10048C0000F054FC0246DDE7003801401F85EB51BB
:10049C002DE9F04383B005460E4617469946DDF824
:1004AC0028802C68246836EA04030CBF4FF0010C3A
:1004BC004FF0000CBC4528D1B8F1FF3FF1D000F053
:1004CC0007F9A0EB0900404523D8B8F1000F22D062
:1004DC002B68DA6812F0040FE3D0802EE1D0402EA6
:1004EC00DFD01A6812F0080FDBD0002401941A68D0
:1004FC0001925B680193019B2846FFF751FF08238B
:10050C006B6485F84040012000E0002003B0BDE89A
:10051C00F0830320FAE70320F8E760B310B5044634
:10052C0090F8413013B3242384F841302268D36807
:10053C0023F40053D3602046FFF760FF2268136951
:10054C0023F4904313612268536923F02A03536107
:10055C002268D36843F40053D360002060642023E6
:10056C0084F8413084F84230606310BD80F840302C
:10057C00FFF7A0FED7E7012070472DE9F04182B0CC
:10058C001E4690F84130DBB2202B56D104460D4666
:10059C009046002955D00AB901204FE0002343644E
:1005AC00212380F8413000F093F80746A4F824800A
:1005BC00A4F82680A368B3F5805F02D04FF0000842
:1005CC0014E023692BB34FF000080FE0202384F8CC
:1005DC004130032032E038F8023B2268C3F30803B1
:1005EC005360E28C92B2013A92B2E284E38C9BB2F9
:1005FC0093B100963B46002280212046FFF748FF2E
:10060C000028E3D1002DE6D015F8012B23685A60A1
:10061C00E7E7A8460025E9E700963B460022402183
:10062C002046FFF735FF18B9202384F8413005E048
:10063C00202384F84130032000E0022002B0BDE802
:10064C00F0810120FAE7000010B504460E4B187833
:10065C004FF47A73B3FBF0F30C4A1068B0FBF3F071
:10066C0000F0D6FC68B90F2C01D901200AE0002259
:10067C0021464FF0FF3000F093FC054B1C6000202E
:10068C0000E0012010BD00BF000000200800002089
:10069C000400002008B5074A136843F010031360E8
:1006AC00032000F06BFC0F20FFF7CEFFFFF756FE88
:1006BC00002008BD00200240034A1168034B1B7840
:1006CC000B441360704700BFD400002000000020D2
:1006DC00014B1868704700BFD400002038B50446A1
:1006EC00FFF7F6FF0546B4F1FF3F02D0044B1B7831
:1006FC001C44FFF7EDFF401BA042FAD338BD00BFEE
:10070C000000002082B0084B1B68084AA2FB0323A0
:10071C005B0A00FB03F3019300BF019B5A1E01927D
:10072C00002BF9D102B0704708000020D34D6210A5
:10073C00002800F0F18170B582B00446036813F014
:10074C00010F2CD0994B5B6803F00C03042B1DD0CC
:10075C00964B5B6803F00C03082B12D06368B3F55F
:10076C00803F41D0002B55D103F1804303F5043376
:10077C001A6822F480321A601A6822F480221A60F5
:10078C0037E08A4B5B6813F4803FE7D0874B1B68DC
:10079C0013F4003F03D06368002B00F0BF81236883
:1007AC0013F0020F75D0814B5B6813F00C0F5FD008
:1007BC007E4B5B6803F00C03082B54D02369002B91
:1007CC0000F08A807A4B01221A60FFF781FF054600
:1007DC00764B1B6813F0020F75D1FFF779FF401BA6
:1007EC000228F5D903209EE1704A136843F4803344
:1007FC001360636843B3FFF76BFF05466B4B1B68D5
:10080C0013F4003FCBD1FFF763FF401B6428F5D9ED
:10081C00032088E1B3F5A02F09D0644B1A6822F4A9
:10082C0080321A601A6822F480221A60E1E703F120
:10083C008043A3F53C331A6842F480221A601A688C
:10084C0042F480321A60D4E7FFF742FF0546574B5B
:10085C001B6813F4003FA2D0FFF73AFF401B64283B
:10086C00F5D903205FE1514B5B6813F4803FA5D1B0
:10087C004E4B1B6813F0020F03D02369012B40F081
:10088C004F814A4A136823F0F803616943EAC103B4
:10089C001360236813F0080F33D0A369002B5CD0CE
:1008AC00434B0122C3F88024FFF712FF05463F4B50
:1008BC005B6A13F0020F21D1FFF70AFF401B0228DD
:1008CC00F5D903202FE1394A136823F0F803616945
:1008DC0043EAC1031360DCE7354B00221A60FFF7D3
:1008EC00F7FE0546314B1B6813F0020FD1D0FFF712
:1008FC00EFFE401B0228F5D9032014E10120FFF77D
:10090C0001FF236813F0040F00F09680274BDB697E
:10091C0013F0805F34D1254BDA6942F08052DA61F2
:10092C00DB6903F080530193019B0125214B1B686C
:10093C0013F4807F26D0E368012B3DD0002B53D1DC
:10094C0003F1804303F504331A6A22F001021A62A0
:10095C001A6A22F004021A6233E0154B0022C3F823
:10096C008024FFF7B5FE0546104B5B6A13F0020FAF
:10097C00C7D0FFF7ADFE401B0228F5D90320D2E00B
:10098C000025D3E70B4A136843F480731360FFF719
:10099C009FFE0646074B1B6813F4807FCBD1FFF7F5
:1009AC0097FE801B6428F5D90320BCE000100240A0
:1009BC0000004242007000405F4A136A43F001039A
:1009CC001362E36833B3FFF783FE06465A4B1B6A88
:1009DC0013F0020F2FD1FFF77BFE801B41F28833FF
:1009EC009842F3D903209EE0052B09D0524B1A6A8A
:1009FC0022F001021A621A6A22F004021A62E0E77B
:100A0C004D4B1A6A42F004021A621A6A42F0010251
:100A1C001A62D6E7FFF75CFE0646474B1B6A13F0DB
:100A2C00020F08D0FFF754FE801B41F28833984226
:100A3C00F3D9032077E0E5B9E369002B72D03E4A85
:100A4C00526802F00C02082A56D0022B17D03B4BEE
:100A5C0000221A66FFF73CFE0446374B1B6813F066
:100A6C00007F47D0FFF734FE001B0228F5D9032086
:100A7C0059E0314AD36923F08053D361DCE72F4B23
:100A8C0000221A66FFF724FE05462B4B1B6813F059
:100A9C00007F06D0FFF71CFE401B0228F5D903206F
:100AAC0041E0236AB3F5803F1AD023494B6823F405
:100ABC007413226A606A024313434B601F4B01227A
:100ACC001A66FFF705FE04461B4B1B6813F0007FEC
:100ADC000ED1FFF7FDFD001B0228F5D9032022E003
:100AEC00154A536823F40033A1680B435360DCE7C9
:100AFC00002018E0002016E0012B16D00E4B5B688E
:100B0C0003F48031226A914211D103F47013626AAA
:100B1C0093420ED1002006E001207047012002E034
:100B2C00012000E0002002B070BD0120FBE7012095
:100B3C00F9E70120F7E700BF001002400000424235
:100B4C000F4B5B6803F00C02082A01D00D4870476C
:100B5C00C3F383420C49885C13F4803F0BD0084BE1
:100B6C005B68C3F34043094AD35C064A02FB00F0BE
:100B7C00B0FBF3F07047064B03FB00F0704700BF6F
:100B8C000010024000127A00641B0008741B00085D
:100B9C0000093D00002800F0A08070B50D46044609
:100BAC00524B1B6803F007038B420BD24F4A13685E
:100BBC0023F007030B431360136803F007038B4206
:100BCC0040F08D80236813F0020F17D013F0040F40
:100BDC0004D0474A536843F4E0635360236813F02E
:100BEC00080F04D0424A536843F460535360404AA0
:100BFC00536823F0F003A1680B435360236813F090
:100C0C00010F31D06368012B20D0022B25D0384A3C
:100C1C00126812F0020F64D035494A6822F00302C0
:100C2C0013434B60FFF754FD0646314B5B6803F0F2
:100C3C000C036268B3EB820F16D0FFF749FD801BE3
:100C4C0041F288339842F0D9032045E0284A1268D3
:100C5C0012F4003FE0D101203EE0254A126812F068
:100C6C00007FD9D1012037E0204B1B6803F007032C
:100C7C00AB420AD91D4A136823F007032B431360B8
:100C8C00136803F00703AB422DD1236813F0040F54
:100C9C0006D0174A536823F4E063E1680B435360B2
:100CAC00236813F0080F07D0114A536823F46053DC
:100CBC00216943EAC1035360FFF742FF0C4B5B68A9
:100CCC00C3F303130B4AD35CD8400B4B18600B4B8C
:100CDC001868FFF7B9FC002070BD01207047012097
:100CEC00FAE70120F8E70120F6E700BF00200240F8
:100CFC0000100240781B00080800002004000020AF
:100D0C00014B1868704700BF0800002008B5FFF7BA
:100D1C00F7FF044B5B68C3F30223034AD35CD84050
:100D2C0008BD00BF00100240881B000808B5FFF783
:100D3C00E7FF044B5B68C3F3C223034AD35CD84080
:100D4C0008BD00BF00100240881B000870B582B0BF
:100D5C000024A446A6E0804DAA4210D007D97F4DAE
:100D6C00AA420CD005F58035AA4208D013E0A5F5AF
:100D7C008015AA4203D005F57025AA4207D18A68CE
:100D8C00002A58D0012A51D04361082403E0A5F56C
:100D9C008015AA42F3D0BEF1FF0F4ED80646BEF125
:100DAC00FF0F4CD84FEA8C0233680F25954023EA8D
:100DBC00050304FA02F2134333604B6813F0805FAF
:100DCC006ED0674B9A6942F001029A619B6903F0FD
:100DDC0001030193019B4FEA9C02951C614B53F854
:100DEC0025600CF003039D000F23AB4026EA03069D
:100DFC005D4B984229D003F58063984200F08E80B9
:100E0C0003F58063984200F08B8003F58063984271
:100E1C0019D004231AE0CC68BDE7CC680434BAE7D7
:100E2C00CC680834B7E7CC680C34B4E70361082409
:100E3C00B1E70024AFE70424ADE7061DAFE7ACF142
:100E4C0008029200B0E7032300E00023AB403343D9
:100E5C000232444D45F822304B6813F4801F61D0A8
:100E6C00424A936843EA0E0393604B6813F4001FE5
:100E7C005ED03E4AD36843EA0E03D3604B6813F44A
:100E8C00003F5BD0394A536843EA0E0353604B680A
:100E9C0013F4803F58D0354A136843EA0E031360AD
:100EAC000CF1010C0A6832FA0CF353D0012303FA4B
:100EBC000CF302EA030E33EA0202F1D14A68122A59
:100ECC003FF649AF122A3FF666AF01A555F822F05E
:100EDC008B0D0008230E00082D0E00083F0E000895
:100EEC00A30D0008A30D0008A30D0008A30D000816
:100EFC00A30D0008A30D0008A30D0008A30D000806
:100F0C00A30D0008A30D0008A30D0008A30D0008F5
:100F1C00A30D0008270E0008330E0008012395E7E7
:100F2C00022393E7114A936823EA0E0393609CE72C
:100F3C000E4AD36823EA0E03D3609FE70B4A53682B
:100F4C0023EA0E035360A2E7084A136823EA0E0350
:100F5C001360A5E702B070BD000022100000311034
:100F6C000010024000000140000801400004014054
:100F7C000AB101617047090401617047074AD368DF
:100F8C0023F4E0631B041B0C000200F4E060034339
:100F9C0043F0BF6343F40033D360704700ED00E0CF
:100FAC0000B5194BDB68C3F30223C3F1070CBCF18A
:100FBC00040F28BF4FF0040C03F1040EBEF1060F12
:100FCC0018D9033B4FF0FF3E0EFA0CFC21EA0C0142
:100FDC0099400EFA03F322EA0303194300280BDBB2
:100FEC000901C9B200F1604000F5614080F80013BE
:100FFC005DF804FB0023E5E700F00F000901C9B21E
:10100C00024B1954F4E700BF00ED00E014ED00E0D2
:10101C000138B0F1807F0BD24FF0E0235861054AC4
:10102C00F02182F823100020986107221A61704782
:10103C000120704700ED00E070470000FFF7FCFF57
:10104C000B480C490C4A002302E0D458C45004331A
:10105C00C4188C42F9D3094A094C002301E01360EF
:10106C000432A242FBD300F00FF8FFF79DF8704753
:10107C000000002070000020FC1B00087000002005
:10108C00EC000020FEE7000070B500260C4D0D4C66
:10109C00641BA410A64209D100F04EFD00260A4D97
:1010AC000A4C641BA410A64205D170BD55F8043B34
:1010BC0098470136EEE755F8043B98470136F2E7BE
:1010CC00F41B0008F41B0008F41B0008F81B0008B4
:1010DC0003460244934200D1704703F8011BF9E721
:1010EC0070B50E46054618B183690BB900F044FA89
:1010FC00AB69AC6813B9284600F03EFA2C4B9C4205
:10110C0020D16C68636EDB0705D4A389980502D4E3
:10111C00A06D00F0CFFAA38919071DD52369DBB1A7
:10112C00013EA36816F8011F013BA36039BB002BDD
:10113C0038DA22460A21284600F048F8013011D04E
:10114C000A2511E01B4B9C4201D1AC68DAE71A4B23
:10115C009C4208BFEC68D5E72146284600F088F889
:10116C000028DDD04FF0FF35636EDA0705D4A38974
:10117C009B0502D4A06D00F09EFA284670BD002B92
:10118C0004DAA2699A4206DC0A2904D023685A1CA4
:10119C0022601970C5E72246284600F017F8013086
:1011AC00BFD1DFE70A2523685A1C22601D70DBE7DC
:1011BC00B41B0008D41B0008941B0008024B01460A
:1011CC001868FFF78DBF00BF0C000020F8B50E4665
:1011DC001446054618B183690BB900F0CDF9214BC3
:1011EC009C422BD16C68A369A360A3891A072FD5E5
:1011FC0023696BB323692068F6B2C01A636937465A
:10120C00834204DC2146284600F022F930BBA36857
:10121C000130013BA36023685A1C22601E70636975
:10122C00834204D0A389DB0706D50A2E04D12146BC
:10123C00284600F00DF988B93846F8BD0A4B9C4297
:10124C0001D1AC68CFE7094B9C4208BFEC68CAE7F8
:10125C002146284600F00CF80028CBD04FF0FF3781
:10126C00EAE700BFB41B0008D41B0008941B00085D
:10127C00324B70B51D6806460C4625B1AB6913B9E7
:10128C00284600F079F92E4B9C420FD16C68A3894B
:10129C00B4F90C2019072CD4DD0611D409233360C2
:1012AC0042F040034FF0FF30A3813EE0254B9C42BF
:1012BC0001D1AC68EBE7244B9C4208BFEC68E6E735
:1012CC00580712D5616B41B104F14403994202D025
:1012DC00304600F057FA00236363A38923F02403FC
:1012EC00A3810023636023692360A38943F008036F
:1012FC00A38123694BB9A38903F42073B3F5007F51
:10130C0003D02146304600F0FDF9A089B4F90C2039
:10131C0010F001030AD00023A36063695B42A36150
:10132C00236943B910F08000BAD170BD810758BF52
:10133C006369A360F4E70020F7E700BF0C0000200E
:10134C00B41B0008D41B0008941B00088A89F8B54C
:10135C00054610070C4657D44B68002B04DC0B6C6D
:10136C00002B01DC0020F8BDE66A002EFAD0002329
:10137C0012F480522F682B6032D0606DA3895A070B
:10138C0005D56368C01A636B0BB1236CC01A0023BC
:10139C000246E66A2846216AB047431CA38906D157
:1013AC0029681D292CD8294ACA40D60728D50022DD
:1013BC0062602269D904226004D5421C01D12B68D9
:1013CC0003B96065616B2F600029CBD004F1440335
:1013DC00994202D0284600F0D5F900206063C2E79C
:1013EC00216A01232846B047411CC7D12B68002B2A
:1013FC00C4D01D2B01D0162B01D12F60B2E7A389CD
:10140C0043F04003A381AEE70F69002FAAD09307E6
:10141C0018BF00230E6808BF4B69F61B0F608B606A
:10142C00002E9FDD33463A462846216AD4F828C060
:10143C00E047002806DCA3894FF0FF3043F040035F
:10144C00A38190E70744361AEAE700BF0100402069
:10145C0038B50B6905460C4613B90025284638BD2E
:10146C0018B183690BB900F087F8144B9C421BD15F
:10147C006C68B4F90C30002BEFD0626ED00704D43A
:10148C00990502D4A06D00F015F928462146FFF706
:10149C005DFF636E0546DA07E0D4A3899B05DDD4B6
:1014AC00A06D00F008F9D9E7054B9C4201D1AC685E
:1014BC00DFE7044B9C4208BFEC68DAE7B41B00087A
:1014CC00D41B0008941B0008002310B50446C0E987
:1014DC000033C0E90433836081814366C281836138
:1014EC00194608225C30FFF7F3FD054B246263625A
:1014FC00044BA362044BE362044B236310BD00BF97
:10150C00691900088B190008C3190008E7190008AD
:10151C00014900F0AFB800BF5D140008682270B537
:10152C004D1E55430E4605F1740100F093F9044627
:10153C0040B10021C0E900160C30A06005F1680232
:10154C00FFF7C6FD204670BD014800F0B3B800BFE0
:10155C00D9000020014800F0AEB800BFD90000202F
:10156C00014800F0A7B800BFDA000020014800F0E5
:10157C00A2B800BFDA00002010B50446FFF7F0FF58
:10158C00A3691BB1BDE81040FFF7F0BFC4E91233EB
:10159C002365134B134A1B68A262A34208BF0123A5
:1015AC00204608BFA36100F01FF86060204600F0E1
:1015BC001BF8A060204600F017F800220421E06020
:1015CC006068FFF781FF01220921A068FFF77CFF0B
:1015DC0002221221E068FFF777FF0123A361D1E714
:1015EC00901B00081D150008F8B50746FFF7ACFF67
:1015FC001E4B1E68B36913B93046FFF7BDFF483662
:10160C00D6E90134013B03D533680BB33668F7E7F1
:10161C00B4F90C50D5B9164B04F15800E36065666B
:10162C0000F047F8FFF796FF08222946C4E9015558
:10163C00C4E904552560A56104F15C00FFF748FD81
:10164C00C4E90D55C4E912552046F8BD6834D9E7F4
:10165C0004213846FFF762FF044630600028D5D1DC
:10166C00FFF778FF0C233B60EEE700BF901B0008F0
:10167C000100FFFF2DE9F84306468846002700F1DC
:10168C004804D4E90195B9F1010905D52468002C69
:10169C00F7D13846BDE8F883AB89012B07D9B5F9EA
:1016AC000E30013303D029463046C0470743683516
:1016BC00E9E770477047704770B50E46B1F90E10E8
:1016CC00144600291D4696B008DA0022B6F90C30F3
:1016DC002A601A0610D44FF480630EE06A4600F0BC
:1016EC00A3F90028F1DB019A02F47042A2F5005331
:1016FC005A425A412A60EEE740230020236016B07C
:10170C0070BD00008B8973B59D0706460C4607D546
:10171C0004F14703236023610123636102B070BDB0
:10172C006A4601ABFFF7C8FF00990546304600F04A
:10173C0091F848B9B4F90C309A05EFD423F00303AF
:10174C0043F00203A381E3E70D4BB362A38920604E
:10175C0043F08003A381009B20616361019B5BB11B
:10176C003046B4F90E1000F071F928B1A38923F0BA
:10177C00030343F00103A381A0890543A581CDE7B1
:10178C001D15000838B50546002940D051F8043C19
:10179C000C1F002BB8BFE41800F07AF91C4A136830
:1017AC0033B9636014602846BDE8384000F076B960
:1017BC00A34208D9206821188B4201BF19685B68C5
:1017CC0009182160EDE71A465B680BB1A342FAD900
:1017DC0011685018A0420BD1206801445018834264
:1017EC001160E0D118685B68014411605360DAE75E
:1017FC0002D90C232B60D6E7206821188B4201BF3D
:10180C0019685B680918216063605460CBE738BDC8
:10181C00DC00002070B50E4E0C463168054611B93F
:10182C0000F08CF830602146284600F087F8431C05
:10183C000AD0C41C24F00304A04207D0211A284665
:10184C0000F07CF8013001D14FF0FF34204670BD20
:10185C00E00000202DE9F041CD1C25F003050835F2
:10186C000C2D38BF0C25002D074601DBA94205D9EC
:10187C000C2300263B603046BDE8F0812E4E00F074
:10188C0007F933681C4634BB29463846FFF7C2FFBC
:10189C00431C04464DD134682646002E40D12368A3
:1018AC003146384604EB030800F048F880453AD13D
:1018BC00216803356D1A25F0030508350C2D38BF4A
:1018CC000C2538462946FFF7A5FF01302BD023689D
:1018DC002B4423600EE02268521B1ED40B2A16D90F
:1018EC006119A342256018BF5960636808BF316055
:1018FC0062514B60384604F10B0600F0CFF826F02D
:10190C000706231DF21AB6D09B1BA350B3E76268DF
:10191C00A3420CBF32605A60ECE723466468B2E71E
:10192C0034467668B9E70C2338463B6000F0B6F8CD
:10193C00A1E72560DEE700BFDC00002038B50023FE
:10194C00054D044608462B6000F0E8F8431C02D114
:10195C002B6803B1236038BDE400002010B50C46A1
:10196C00B1F90E1000F0A0F80028ABBF636DA3898D
:10197C001B1823F48053ACBF6365A38110BD2DE904
:10198C00F0411F468B890546DB050C46164605D5EE
:10199C0002230022B1F90E1000F068F8A389324638
:1019AC0023F48053A38128463B46B4F90E10BDE8BE
:1019BC00F04100F017B810B50C46B1F90E1000F05C
:1019CC0055F8431CA38915BF606523F4805343F479
:1019DC008053A38118BFA38110BDB1F90E1000F084
:1019EC0013B8000038B50446084611460022054DD0
:1019FC002A601A46FEF79AFC431C02D12B6803B1ED
:101A0C00236038BDE400002038B50023054D0446A2
:101A1C0008462B6000F05AF8431C02D12B6803B126
:101A2C00236038BDE400002038B50023064D044681
:101A3C00084611462B6000F051F8431C02D12B686C
:101A4C0003B1236038BD00BFE400002038B500238B
:101A5C00054D044608462B6000F048F8431C02D1A3
:101A6C002B6803B1236038BDE400002038B5044670
:101A7C00084611460022054D2A601A4600F03EF831
:101A8C00431C02D12B6803B1236038BDE400002055
:101A9C000148FFF70FBE00BFD80000200148FFF738
:101AAC000ABE00BFD800002038B5044608461146CF
:101ABC000022054D2A601A4600F028F8431C02D17A
:101ACC002B6803B1236038BDE40000205822024B80
:101ADC004FF0FF301A607047E40000205822024B90
:101AEC004FF0FF301A607047E40000205822024B80
:101AFC0000201A60704700BFE40000205822024BFF
:101B0C004FF0FF301A607047E40000205822024B5F
:101B1C004FF0FF301A607047E4000020044A05497A
:101B2C001368002B08BF0B4618441060184670470A
:101B3C00E8000020F0000020F8B500BFF8BC08BC9D
:101B4C009E467047F8B500BFF8BC08BC9E4670476F
:101B5C0068656C6C6F210000020304050607080918
:101B6C000A0B0C0D0E0F10100102000000000000FB
:101B7C000000000001020304060708090000000031
:101B8C00010203041000002000000000000000000F
:101B9C000000000000000000000000000000000039
:101BAC000000000000000000000000000000000029
:101BBC000000000000000000000000000000000019
:101BCC000000000000000000000000000000000009
:101BDC0000000000000000000000000000000000F9
:081BEC000000000000000000F1
:041BF40031010008B3
:041BF8000D010008D3
:101BFC00010000001000000000127A00100000200C
:101C0C0000000000B41B0008D41B0008941B000843
:101C1C0000000000000000000000000000000000B8
:101C2C0000000000000000000000000000000000A8
:101C3C000000000000000000000000000000000098
:101C4C000000000000000000000000000000000088
:101C5C000000000000000000000000000000000078
:040000050800104996
:00000001FF
